:03000000020006F5
:03005F0002000399
:030003000200BE3A
:10006200AE82AF838E048F051EBEFF011FEC4D7062
:10007200F322AF82C2B6C2B57D007E00C3ED940802
:10008200EE64809480502AEF23540124FF92B48FAF
:1000920004EC2CFFD2B6900001C007C006C00512C6
:1000A2000062D005D006D007C2B60DBD00CE0E80CC
:1000B200CBD2B5900001120062C2B522758208123D
:0700C20000747580F780FE59
:06003500E478FFF6D8FD9F
:100013007900E94400601B7A009000CD780175A057
:1000230000E493F2A308B8000205A0D9F4DAF2754C
:02003300A0FF2C
:10003B007800E84400600A790175A000E4F309D860
:10004B00FC7800E84400600C7900900001E4F0A318
:04005B00D8FCD9FAFA
:0D0006007581071200C9E582600302000346
:0400C900758200221A
:00000001FF
