:03000000020006F5
:03005F0002000399
:0300030002007A7E
:20006200AE82AF838E048F051EBEFF011FEC4D70F32290000102006275A00012007475A098
:200082008012007475A0C012007475A0E012007475A0F012007475A0F812007475A0FC1241
:1000A200007475A0FE12007475A0FF12007480C85F
:06003500E478FFF6D8FD9F
:200013007900E94400601B7A009000B6780175A000E493F2A308B8000205A0D9F4DAF275DD
:02003300A0FF2C
:20003B007800E84400600A790175A000E4F309D8FC7800E84400600C7900900001E4F0A3C3
:04005B00D8FCD9FAFA
:0D0006007581071200B2E58260030200035D
:0400B2007582002231
:00000001FF
