:0400000002001132B7
:03000B0002012AC5
:03006A0002000E83
:03000E0002016F7D
:20006D00AE82AF838E048F051EBEFF011FEC4D70F322438901758C00758A18D2AFD2A9D27F
:20008D008C22740FB50819E50825E0F508E50925E0F509E50A25E0F50AE50B25E0F50B2262
:2000AD00741EB5081AE50825E0F508E50925E0F509E50A25E0F50AE50B250B04F50B22743D
:2000CD003CB5081BE50825E0F508E50925E0F509E50A250A04F50AE50B250B04F50B227444
:2000ED0078B5081CE50825E0F508E509250904F509E50A250A04F50AE50B250B04F50B222E
:20010D00E508250804F508E509250904F509E50A250A04F50AE50B250B04F50B22C020C092
:20012D00E0C0F0C082C083C007C006C005C004C003C002C001C000C0D075D000758C007536
:20014D008D0012008FD0D0D000D001D002D003D004D005D006D007D083D082D0F0D0E0D043
:20016D00203212007F7508F07509F1750AF3750BF7750CFF8508A090000112006D8509A0DF
:20018D0090000112006D850AA090000112006D850BA090000112006D850CA09000011200EF
:0301AD006D80D191
:06004000E478FFF6D8FD94
:20001E007900E94400601B7A009001B4780175A000E493F2A308B8000205A0D9F4DAF275D3
:02003E00A0FF21
:200046007800E84400600A790175A000E4F309D8FC7800E84400600C7900900001E4F0A3B8
:04006600D8FCD9FAEF
:0D0011007581201201B0E582600302000E2F
:0401B0007582002232
:00000001FF
