:03000000020006F5
:10005F0075083F750906750A5B750B4F750C66754C
:10006F000D6D750E7D750F0775107F75116F7512FC
:10007F007775137C75143975155E7516797517714B
:03008F0002000369
:03000300020136C1
:10009200AE82AF838E048F051EBEFF011FEC4D7032
:1000A200F322740FF590B590030201319013881278
:1000B2000092740FB59003020131AF90BF07028026
:1000C2000FBF0B028010BF0D028011BF0E188012ED
:1000D2007E007F0080107E017F00800A7E027F000A
:1000E20080047E037F007590F0AD90BD7002802881
:1000F200BDB002800ABDD002800EBDE01B8012742A
:10010200042EFEE43FFF801074082EFEE43FFF80C1
:1001120007740C2EFEE43FFF74F0B590028010903D
:100122001388C007C006120092D006D00780E98E5D
:10013200828F8322C2A4A2A492A3A2A392A212009B
:0D014200A4AE82AF83EE2408F9878080E729
:06003500E478FFF6D8FD9F
:100013007900E94400601B7A00900153780175A0D0
:1000230000E493F2A308B8000205A0D9F4DAF2754C
:02003300A0FF2C
:10003B007800E84400600A790175A000E4F309D860
:10004B00FC7800E84400600C7900900001E4F0A318
:04005B00D8FCD9FAFA
:0D00060075811912014FE5826003020003AD
:04014F007582002293
:00000001FF
