:0400000002002132A7
:01000B0032C2
:0100130032BA
:03001B000200D709
:10007A0075083F750906750A5B750B4F750C667531
:10008A000D6D750E7D750F0775107F75116F7512E1
:10009A007775137C75143975155E75167975177130
:0A00AA00E4F518F519F51A02001E1E
:03001E0002014399
:1000B400438910758DFC758B18D2AFD2ABD28E22CA
:1000C400AF82C2A2A2A292A3A2A392A4EF2408F98F
:1000D400878022C020C0E0C0F0C082C083C007C0B7
:1000E40006C005C004C003C002C001C000C0D07572
:1000F400D000758DFC758B18851A821200C4051802
:10010400E4B51802051974E8B518177403B5191283
:10011400E4F518F519051A7410B51A03751A007563
:100124008000D0D0D000D001D002D003D004D005BC
:10013400D006D007D083D082D0F0D0E0D0203212C5
:0401440000B480FE85
:06005000E478FFF6D8FD84
:10002E007900E94400601B7A0090014C780175A0BC
:10003E0000E493F2A308B8000205A0D9F4DAF27531
:02004E00A0FF11
:100056007800E84400600A790175A000E4F309D845
:10006600FC7800E84400600C7900900001E4F0A3FD
:04007600D8FCD9FADF
:0D002100758120120148E582600302001E77
:04014800758200229A
:00000001FF
