:0400000002001132B7
:03000B0002008070
:06006A0075080002000E03
:03000E0002016C80
:20007000758902758CFB758AFBD2AFD2A9D28C22C0E0E50804F508D0E032AF8285080A7551
:200090000B00900064C0071201A7750A00750B011201EDAD82AE83D0077C00C3ED9FEE647C
:2000B000808CF063F08095F05003D2A022C2A022AF8285080A750B00900064C0071201A7B4
:2000D000750A00750B011201EDAD82AE83D0077C00C3ED9FEE64808CF063F08095F0500315
:2000F000D2A122C2A12212008A7582000200C075090074CE25094010E5087005E50904F5FA
:2001100009E50904F50980EA227F0020B011C0071200FFD00720B0027F0120B03C80FB2042
:20013000B111C0071200FFD00720B1027F0220B12880FB20B211C0071200FFD00720B20210
:200150007F0320B21480FB20B30FC0071200FFD00720B3027F0430B3FD8F82227F00C0076A
:20017000120070D0078F82C0071200F6120119AE82D007BE0102800FBE0202800EBE0302A0
:17019000800DBE04E0800C7F0080DA7F1E80D67F3C80D27F6480CE93
:06004000E478FFF6D8FD94
:20001E007900E94400601B7A00900229780175A000E493F2A308B8000205A0D9F4DAF2755D
:02003E00A0FF21
:1D01A700E582850AF0A4C582C0F0850BF0A4D0F025F0C583850AF0A42583F5832214
:200046007800E84400600A790175A000E4F309D8FC7800E84400600C7900900001E4F0A3B8
:04006600D8FCD9FAEF
:2001C4007A10E4FBFCE58225E0F582E58333F583EB33FBEC33FCEB950AF5F0EC950B40064B
:0901E400FCABF0438201DADD22DC
:0D00110075810B120225E582600302000ECE
:2001ED00C2D5E58330E70DD2D5E4C39582F582E49583F583E50B30E70DB2D5E4C3950AF5A9
:18020D000AE4950BF50B1201C430D50BE4C39582F582E49583F5832299
:0402250075820022BC
:00000001FF
