:0400000002001132B7
:03000B0002008070
:06006A0075080002000E03
:03000E000200F6F7
:20007000758902758CFB758AFBD2AFD2A9D28C22C0E0E50804F508D0E032AF828508097552
:200090000A00900064C007120107750900750A0112014DAD82AE83D0077C00C3ED9FEE64BF
:2000B000808CF063F08095F05003D2A022C2A022AF82850809750A00900064C00712010756
:2000D000750900750A0112014DAD82AE83D0077C00C3ED9FEE64808CF063F08095F05003B7
:1700F000D2A122C2A12212007075823212008A75820012008A80F293
:06004000E478FFF6D8FD94
:20001E007900E94400601B7A00900189780175A000E493F2A308B8000205A0D9F4DAF275FE
:02003E00A0FF21
:1D010700E5828509F0A4C582C0F0850AF0A4D0F025F0C5838509F0A42583F58322B7
:200046007800E84400600A790175A000E4F309D8FC7800E84400600C7900900001E4F0A3B8
:04006600D8FCD9FAEF
:200124007A10E4FBFCE58225E0F582E58333F583EB33FBEC33FCEB9509F5F0EC950A4006ED
:09014400FCABF0438201DADD227C
:0D00110075810A120185E582600302000E70
:20014D00C2D5E58330E70DD2D5E4C39582F582E49583F583E50A30E70DB2D5E4C39509F54B
:18016D0009E4950AF50A12012430D50BE4C39582F582E49583F58322DD
:04018500758200225D
:00000001FF
