:03000000020006F5
:10005F0075083F750906750A5B750B4F750C66754C
:10006F000D6D750E7D750F0775107F75116F7512FC
:10007F007775137C75143975155E7516797517714B
:03008F0002000369
:03000300020142B5
:100092007E107F278E048F051EBEFF011FEC4D7060
:1000A200F322AE82AF83C374089EE49F5003020121
:1000B20025EE240A83F582EE240D83F583E473256D
:1000C200D3DFE9F3FD07111B01000000000001016D
:1000D20001C2A4A2A492A3A2A392A28046D2A2C2C7
:1000E200A4A2A492A3803CC2A4A2A492A2D2A3805E
:1000F20032D2A3A2A392A2C2A48028C2A3A2A39294
:10010200A2D2A4801ED2A4A2A492A2C2A38014C28C
:10011200A2D2A4A2A492A3800AD2A4A2A492A3A22D
:10012200A392A222AE82AF83C007C0061200A4D05F
:1001320006D007EE2408F98780120092758000220B
:100142007E017F00C374089E74808FF063F08095F7
:10015200F040ED8E828F83C007C006120126D006C2
:0A016200D0070EBE00DE0F80DB2286
:06003500E478FFF6D8FD9F
:100013007900E94400601B7A00900170780175A0B3
:1000230000E493F2A308B8000205A0D9F4DAF2754C
:02003300A0FF2C
:10003B007800E84400600A790175A000E4F309D860
:10004B00FC7800E84400600C7900900001E4F0A318
:04005B00D8FCD9FAFA
:0D00060075811712016CE582600302000392
:04016C007582002276
:00000001FF
