:03000000020006F5
:03005F0002000399
:030003000200F503
:10006200AE82AF838E048F051EBEFF011FEC4D7062
:10007200F3227E007F00BEF405BF0102803874F4D3
:10008200C39EFC74019FFD8E828F83C007C006C091
:1000920005C004120062D004D005E5A0F4F5A08CDE
:1000A200828D83120062D006D007E5A0F4F5A00E7F
:1000B200BE00C30F80C0EE4F603874F4C39EFC7460
:1000C200019FFD8E828F83C007C006C005C0041247
:1000D2000062D004D005E5A0F4F5A08C828D8312D5
:1000E2000062D006D007E5A0F4F5A01EBEFF011FF6
:0800F20080C42212007480FB9F
:06003500E478FFF6D8FD9F
:100013007900E94400601B7A009000FE780175A026
:1000230000E493F2A308B8000205A0D9F4DAF2754C
:02003300A0FF2C
:10003B007800E84400600A790175A000E4F309D860
:10004B00FC7800E84400600C7900900001E4F0A318
:04005B00D8FCD9FAFA
:0D0006007581071200FAE582600302000315
:0400FA0075820022E9
:00000001FF
