:0600000002000902007E6F
:0300620002000693
:030006000200C530
:10006500AE82AF838E048F051EBEFF011FEC4D705F
:10007500F322D288D2A8D2AF22C020C0E0C0F0C0FF
:1000850082C083C007C006C005C004C003C002C04B
:1000950001C000C0D075D0009003E812006520B201
:1000A50002B2A0D0D0D000D001D002D003D004D06D
:1000B50005D006D007D083D082D0F0D0E0D0203252
:0500C50012007780FE2F
:06003800E478FFF6D8FD9C
:100016007900E94400601B7A009000CE780175A053
:1000260000E493F2A308B8000205A0D9F4DAF27549
:02003600A0FF29
:10003E007800E84400600A790175A000E4F309D85D
:10004E00FC7800E84400600C7900900001E4F0A315
:04005E00D8FCD9FAF7
:0D0009007581201200CAE582600302000626
:0400CA007582002219
:00000001FF
