:03000000020006F5
:03005F0002000399
:030003000200BE3A
:10006200AE82AF838E048F051EBEFF011FEC4D7062
:10007200F322AF82C2B6C2B57D007E00C3ED940802
:10008200EE64809480502AEF23540124FF92B48FAF
:1000920004EC2CFFD2B6900001C007C006C00512C6
:1000A2000062D005D006D007C2B60DBD00CE0E80CC
:1000B200CBD2B5900001120062C2B52275087F75DD
:1000C20009BF750ADF750BEF750CF7750DFB750E21
:1000D200FD750FFE75100075110075123E75134106
:1000E20075144175154175163E7517007580FF7EB2
:1000F200007F00C3EE9408EF6480948050EEEE24FB
:1001020008F98780EE2410F98782C007C006120022
:1001120074900001120062758200120074D006D041
:08012200070EBE00CE0F80CBDA
:06003500E478FFF6D8FD9F
:100013007900E94400601B7A0090012E780175A0F5
:1000230000E493F2A308B8000205A0D9F4DAF2754C
:02003300A0FF2C
:10003B007800E84400600A790175A000E4F309D860
:10004B00FC7800E84400600C7900900001E4F0A318
:04005B00D8FCD9FAFA
:0D00060075811712012AE5826003020003D4
:04012A0075820022B8
:00000001FF
